:0400000080312628FD
:100008007E1480318B1E09280A2812280B1D0D2802
:100018000E28122884314324803124280B1F1528E8
:10002800162824282100131E1A281B2824282000FB
:10003800131E1F282028242884317E248031242858
:100048007E10090080312828FF3084008230850026
:10005800A03086000030870040308431D2248031BF
:10006800F001F101F201F301F401F50120308400FF
:100078000030850025308431D82480317E1020005E
:1000880083313F2B20004008A03E860087010108ED
:10009800CC002A084C060319522853285428C22990
:1000A800BF01C01E582859285C2822008C155E28DC
:1000B80022008C112000C01A622863287A28C019EF
:1000C800662867287A2840196A286B287A28401AEF
:1000D8006E286F287A2822008E100C10003020001D
:1000E800C500C60084310E248031B129C01A7D288C
:1000F8007E289128C01981288228912840198528AE
:1001080086289128401E89288A28912822008E1046
:100118000C108331F0238031B129C01A9428952816
:10012800A528C01998289928A528401D9C289D28ED
:10013800A528401AA028A128A52822008E100C1452
:100148007228C01AA828A928B928C019AC28AD282F
:10015800B928401DB028B128B928401EB428B528B0
:10016800B92822008E100C108D28C01ABC28BD2872
:10017800CD28C01DC028C128CD284019C428C528AD
:10018800CD28401AC828C928CD2822008E140C1062
:100198007228C01AD028D128E128C01DD428D52813
:1001A800E1284019D828D928E128401EDC28DD2874
:1001B800E12822008E140C107228C01AE428E528C1
:1001C800F528C01DE828E928F528401DEC28ED2869
:1001D800F528401AF028F128F52822008E140C146E
:1001E8007228C01AF828F9280929C01DFC28FD28FA
:1001F8000929401D002901290929401E042905292A
:10020800092922008E140C147228C01E0C290D29ED
:100218002529C0191029112925294019142915291A
:100228002529401A18291929252922008E100C1071
:1002380032302000C5000030C60084310E248031E1
:10024800B129C01E282929293929C0192C292D2965
:1002580039294019302931293929401E34293529AD
:10026800392922008E100C108D28C01E3C293D29EA
:100278004D29C019402941294D29401D44294529A6
:100288004D29401A482949294D2922008E100C1061
:100298001C29C01E502951296129C01954295529E2
:1002A8006129401D582959296129401E5C295D2969
:1002B800612922008E100C101C29C01E6429652992
:1002C8007529C01D68296929752940196C296D2966
:1002D8007529401A70297129752922008E140C106D
:1002E8001C29C01E782979298929C01D7C297D29C6
:1002F80089294019802981298929401E842985292D
:10030800892922008E140C101C29C01E8C298D29C5
:100318009D29C01D902991299D29401D9429952921
:100328009D29401A982999299D2922008E140C1478
:100338001C29C01EA029A129B129C01DA429A529AD
:10034800B129401DA829A929B129401EAC29AD29E8
:10035800B12922008E140C141C292000CD014D084F
:10036800203E8600870181010130CB004B08CD0774
:100378000B304D02031CC129C229B32908000430DF
:1003880026001306031DC929CA29602A7708F30025
:100398007608F2000530930020003803031DD529A4
:1003A800D6298D2AB80171087302031DDD2970084A
:1003B8007202031CE029E129E82970087202B100E1
:1003C8007108733BB200F4297108F9007008F8004D
:1003D800F809F90972087807B1007308793DB20085
:1003E8003408F9003308F800F936F80CF936F80C37
:1003F800F936F80C7808BA003208F9003108F80024
:10040800F936F80CF936F80CF936F80C7808BB0010
:100418003B083A020318112A122A162A3A083B0204
:10042800B900192A3B083A02B9003708031D1D2AEA
:100438001E2A2D2A22000E16103020003902031819
:10044800262A272A8D2AB701B70AB60122000E12DA
:100458008D2A103039020318322A332A432A2200FF
:100468000E120130F8002000360A3B2AF835890BB5
:100478003A2A7808FF3AF9007908F505512A220046
:100488000E160130F8002000360A4B2AF835890B81
:100498004A2A7808F9007908F5040130F800780844
:1004A800B60708303602031C5A2A5B2A5F2AB701AE
:1004B8000130C4008D2A8D2A05301306031D652AD4
:1004C800662A8D2A7708F1007608F0000430930038
:1004D80073087102031D722A72087002031C752AC0
:1004E800762A7E2A720870022000B3007308713BD6
:1004F800B4008B2A7308F9007208F800F809F909A2
:10050800700878072000B3007108793DB400B8017D
:10051800B80A080020004403031D932A942AFE2ADF
:10052800C401DB2AC8307506031D9B2A9C2AA12A10
:10053800C201C20A7508A000FE2AC201FE2A8B3039
:100548007506031DA82AA92AA12A7508A100023048
:10055800C200FE2A7508A2000330C200FE2A7508F0
:10056800A3000430C200FE2A7508A4000530C200AA
:10057800FE2A7508A5000630C200FE2A7508A600E6
:100588000730C200FE2A7508A7000830C200FE2AFC
:100598007508A8000930C200FE2A7508A9000A30AB
:1005A800C200FE2A7508AA00C301C30AA12A42088C
:1005B800003A0319962A013A0319A32A033A0319A0
:1005C800AE2A013A0319B32A073A0319B82A013A9D
:1005D8000319BD2A033A0319C22A013A0319C72A83
:1005E8000F3A0319CC2A013A0319D12A033A0319FD
:1005F800D62AA12A08004C349F34ED343E349A346C
:1006080000340034003427340034003400347334A8
:10061800A034D23401348E345D342F34FC34673442
:10062800003400340034DA34003400340034B13497
:1006380062341034C3342D34FE348C345F342C349B
:100648000034003400343834EB3499344A341234EA
:10065800C134B3346034EF343C344E349D34D13437
:100668000034003400346C34003400340034D034A6
:1006780003347134A23484312A2483316F3020004A
:10068800C5000430C6008431DE2483318B170B1774
:1006980020008D19502B512B532BBC01552BBC011D
:1006A800BC0A82318E22833183317F2383318331A7
:1006B800B023833120003D08031D632B642B6F2B6F
:1006C8003E03031D682B692B6B2BBE014C2B80311D
:1006D800462083314C2BBD0122008C150C108E1442
:1006E80032302000C5000030C60084310E2483312A
:1006F8004C2B8031262820002208F4002308C10052
:10070800C001741D882B892B8B2BC0168C2BC01213
:10071800F41D8F2B902B922B4016932B4012741E96
:10072800962B972B992BC0159A2BC011F41E9D2B35
:100738009E2BA02B4015A12B4011C11EA42BA52B2D
:10074800A72BC014A82BC010411FAB2BAC2BAE2B72
:100758004014AF2B40100800063020002206031D6D
:10076800B62BB72BD02BD5302A06031DBC2BBD2B9F
:10077800D02B22008C152000BE01BE0A22008E104C
:100788000C1032302000C5000030C60084310E2421
:1007980083312000BF01D12BBE0108002200900147
:1007A8008C0108308D0010308E0008302100900038
:1007B800F6308C00FF308D00F9308E003730230082
:1007C8008D003F308C002400900108308D002100FE
:1007D800951322009D010800F4302000C900013063
:1007E800CA003C08031DF92BFA2B012C401CFD2BD9
:1007F800FE2B062CC901CA01062CC01C042C052C92
:10080800062CFE2B4A08C6004908C50084310E2470
:100818008331080020004608C8004508C700C836CC
:10082800C70CC836C70C47082500910020004508AA
:100838000339C7000430C735890B1F2C250013085E
:10084800CF39200047042500930008008331D223C4
:1008580084318431B42484318431E4248431843172
:100868009A2484318431CA2484318431C024843167
:1008780084318D24843184315B24843108000B1148
:100888002000350895000130AD070030AE3D00303E
:100898002E020A3003192D02031C532C542C5A2CF7
:1008A8008431A72484312000AD01AE010800210065
:1008B8001508C03914389500063020009500063018
:1008C800B5000B118B16E830C5000430C600843122
:1008D800DE24843108000130F60076082000BF07C6
:1008E800C8303F02031C792C7A2C7D2CBD01BD0A2F
:1008F800BF0108002000131226001108FA00120890
:10090800FB007B08F7007A08F6008131C3218431A7
:10091800080010302000990097019601111017085F
:10092800AC001608AB000130980008000C30250018
:100938009300950180309400013096009201910156
:10094800FC309E05080020002F0830040319AD2C48
:10095800AE2CB32C30088A002F080A008431080016
:1009680070302100990098012200960121001A1F79
:10097800BE2CBF2CBA2C080005302600930092012B
:100988009101200013122100131608007C3020006A
:100998009B009A01911007309C000800FE0012008D
:1009A8001E00FE0BD32C0034640080010131890B3A
:1009B800D92C003420004608B0004508AF000800D4
:0A09C8001630210097000800080017
:020000040001F9
:08000000FF3FFF3FFF3FFF3F00
:04000E00C43FFF1FCD
:00000001FF
