:020000040000FA
:0400000080312628FD
:100008007E1480318B1E09280A2812280B1D0D2802
:100018000E28122884317924803124280B1F1528B2
:10002800162824282100131E1A281B2824282000FB
:10003800131E1F28202824288431B4248031242822
:100048007E10090080312828FF3084008230850026
:10005800A030860000308700403085310825803187
:10006800F001F101F201F301F401F50120308400FF
:1000780000308500253085310E2580317E10200026
:1000880083313F2B20003F08A03E860087010108EE
:10009800CC002A084C060319522853285428C22990
:1000A800BE01BF1E582859285C2822008C155E28DE
:1000B80022008C1120003F19622863287A28BF1972
:1000C800662867287A283F1A6A286B287A28BF1A70
:1000D8006E286F287A2822000C108E10003020001D
:1000E800C500C600843144248031B1293F197D28D8
:1000F8007E289628BF198128822896283F1A8528A5
:1001080086289628BF1E89288A28962822000C103F
:100118008E1032302000C5000030C60084314424DF
:100128008031B1293F1999289A28AD28BF199D28EF
:100138009E28AD283F1EA128A228AD28BF1AA528B1
:10014800A628AD2822000C108E1083317F23803121
:10015800B1293F19B028B128C128BF19B428B5283A
:10016800C1283F1EB828B928C128BF1EBC28BD28F1
:10017800C12822000C108E10A9283F19C428C528B0
:10018800D528BF1DC828C928D5283F1ACC28CD286E
:10019800D528BF1AD028D128D52822000C108E14B3
:1001A80072283F19D828D928E928BF1DDC28DD285E
:1001B800E9283F1AE028E128E928BF1EE428E528B5
:1001C800E92822000C108E148D283F19EC28ED2800
:1001D800FD28BF1DF028F128FD283F1EF428F5282A
:1001E800FD28BF1AF828F928FD2822000C108E14C3
:1001F80072283F19002901291129BF1D0429052941
:1002080011293F1E082909291129BF1E0C290D296A
:10021800112922000C108E148D283F1D1429152930
:100228002529BF191829192925293F1A1C291D29EB
:100238002529BF1A20292129252922000C148E10CE
:1002480072283F1D282929293929BF192C292D2928
:1002580039293F1A302931293929BF1E342935292E
:10026800392922000C108E108D283F1D3C293D296C
:100278004D29BF19402941294D293F1E44294529A7
:100288004D29BF1A482949294D2922000C108E10E2
:10029800A9283F1D502951296129BF1954295529D9
:1002A80061293F1E582959296129BF1E5C295D29EA
:1002B800612922000C108E10A9283F1D6429652988
:1002C8007529BF1D6829692975293F1A6C296D2967
:1002D8007529BF1A70297129752922000C148E14EA
:1002E80072283F1D782979298929BF1D7C297D29F4
:1002F80089293F1A802981298929BF1E84298529AE
:10030800892922000C148E148D283F1D8C298D29D3
:100318009D29BF1D902991299D293F1E9429952922
:100328009D29BF1A982999299D2922000C148E14F9
:1003380072283F1DA029A129B129BF1DA429A529DB
:10034800B1293F1EA829A929B129BF1EAC29AD2969
:10035800B12922000C148E148D282000CD014D08DF
:10036800203E8600870181010130CB004B08CD0774
:100378000B304D02031CC129C229B32908000430DF
:1003880026001306031DC929CA29602A7708F30025
:100398007608F2000530930020003703031DD529A5
:1003A800D6298D2AB70171087302031DDD2970084B
:1003B8007202031CE029E129E82970087202AB00E7
:1003C8007108733BAC00F4297108F9007008F80053
:1003D800F809F90972087807AB007308793DAC0091
:1003E8002E08F9002D08F800F936F80CF936F80C43
:1003F800F936F80C7808B9002C08F9002B08F80031
:10040800F936F80CF936F80CF936F80C7808BA0011
:100418003A0839020318112A122A162A39083A0208
:10042800B800192A3A083902B8003608031D1D2AEF
:100438001E2A2D2A22000E1610302000380203181A
:10044800262A272A8D2AB601B60AB50122000E12DD
:100458008D2A103038020318322A332A432A220000
:100468000E120130F8002000350A3B2AF835890BB6
:100478003A2A7808FF3AF9007908F505512A220046
:100488000E160130F8002000350A4B2AF835890B82
:100498004A2A7808F9007908F5040130F800780844
:1004A800B50708303502031C5A2A5B2A5F2AB601B1
:1004B8000130C3008D2A8D2A05301306031D652AD5
:1004C800662A8D2A7708F1007608F0000430930038
:1004D80073087102031D722A72087002031C752AC0
:1004E800762A7E2A720870022000AD007308713BDC
:1004F800AE008B2A7308F9007208F800F809F909A8
:10050800700878072000AD007108793DAE00B7018A
:10051800B70A080020004303031D932A942AFE2AE1
:10052800C301DB2AC8307506031D9B2A9C2AA12A11
:10053800C101C10A7508A000FE2AC101FE2A8B303C
:100548007506031DA82AA92AA12A7508A100023048
:10055800C100FE2A7508A2000330C100FE2A7508F2
:10056800A3000430C100FE2A7508A4000530C100AC
:10057800FE2A7508A5000630C100FE2A7508A600E7
:100588000730C100FE2A7508A7000830C100FE2AFE
:100598007508A8000930C100FE2A7508A9000A30AC
:1005A800C100FE2A7508AA00C201C20AA12A410890
:1005B800003A0319962A013A0319A32A033A0319A0
:1005C800AE2A013A0319B32A073A0319B82A013A9D
:1005D8000319BD2A033A0319C22A013A0319C72A83
:1005E8000F3A0319CC2A013A0319D12A033A0319FD
:1005F800D62AA12A08004C349F34ED343E346634A0
:10060800B534C734143459348A34F8342B34733439
:10061800A034D23401348E345D342F34FC34A43405
:1006280077340534D6349B3448343A34E934B13419
:1006380062341034C3342D34FE348C345F340734C0
:10064800D434A63475343834EB3499344A341234FB
:10065800C134B3346034EF343C344E349D34C53443
:1006680016346434B734FA3429345B348834D034DB
:1006780003347134A234843160248331A5302000DE
:10068800C5000430C6008531142583318B170B173C
:1006980020008D19502B512B532BBB01552BBB011F
:1006A800BB0A82318E2283318331F5238331833132
:1006B800BB23833120003C08031D632B642B6F2B65
:1006C8003D03031D682B692B6B2BBD014C2B80311F
:1006D800462083314C2BBC0122008C150C108E1443
:1006E80032302000C5000030C600843144248331F4
:1006F8004C2B80312628F4302000C9000130CA0074
:100708003B08031D882B892BA12B3F1C8C2B8D2B81
:10071800942BBF1A902B912B942BC901CA01B32B90
:100728003F1C972B982BB32BBF1E9B2B9C2BB32BBB
:100738003230C9000030CA00B32BBF1CA42BA52B34
:10074800AA2BBF1AA82BA92BAA2B912BBF1CAD2B08
:10075800AE2BB32BBF1EB12BB22BB32B9C2B4A084D
:10076800C6004908C5008431442483310800063096
:1007780020002206031DC12BC22BD92BD5302A06F7
:10078800031DC72BC82BD92BBD01BD0A22008C1510
:100798008E100C1032302000C5000030C6008431A5
:1007A800442483312000BE01F42B02302206031DAD
:1007B800DE2BDF2BF32BB4302A06031DE42BE52BAD
:1007C800F32BBD01BD0A22008C118E100C100030D5
:1007D8002000C500C600843144248331D62BBD01D6
:1007E800080020002208F4002308C000BF01741D7F
:1007F800FE2BFF2B012CBF16022CBF12F41D052C5B
:10080800062C082C3F16092C3F12741E0C2C0D2C9C
:100818000F2CBF15102CBF11F41E132C142C162CE2
:100828003F15172C3F11C01E1A2C1B2C1D2CBF1452
:100838001E2CBF10401F212C222C242C3F14252CA9
:100848003F100800220090018C0108308D00103004
:100858008E00083021009000F6308C00FF308D00AB
:10086800F9308E00373023008D003F308C00240093
:10087800900108308D002100951322009D01080089
:1008880020004608C8004508C700C836C70CC83647
:10089800C70C470825009100200045080339C70008
:1008A8000430C735890B552C25001308CF39200093
:1008B80047042500930008008431262484318431BC
:1008C800EA24843185311A2584318431D024843155
:1008D8008531002584318431F62484318431C32460
:1008E800843184319124843108000B11200044089C
:1008F80095000130AF070030B03D003030020A30BB
:1009080003192F02031C892C8A2C902C8431DD2496
:1009180084312000AF01B001080021001508C0395A
:10092800143895000630200095000630C4000B11DD
:100938008B161E30C5000530C6008531142584315C
:1009480008000130F60076082000BE07C8303E02D5
:10095800031CAF2CB02CB32CBC01BC0ABE01080090
:100968002000131226001108FA001208FB007B0869
:10097800F7007A08F6008131C3218431080010306D
:10098800200099009701960111101708B400160865
:10099800B3000130980008000C3025009300950141
:1009A800803094000130960092019101FC309E0540
:1009B80008002000310832040319E32CE42CE92C48
:1009C80032088A0031080A0084310800703021009A
:1009D800990098012200960121001A1FF42CF52C89
:1009E800F02C0800053026009300920191012000A8
:1009F80013122100131608007C3020009B009A0176
:100A0800911007309C000800FE0012001E00FE0B2B
:100A1800092D0034640080010131890B0F2D003449
:100A280020004608B2004508B10008001630210031
:060A380097000800080011
:020000040001F9
:04000E00C43FFF1FCD
:00000001FF
