:020000040000FA
:0400000080312628FD
:100008007E1480318B1E09280A2812280B1D0D2802
:100018000E28122884316124803124280B1F1528CA
:10002800162824282100131E1A281B2824282000FB
:10003800131E1F282028242884319C24803124283A
:100048007E10090080312828EA308400823085003B
:10005800A03086000030870040308431F0248031A1
:10006800F001F101F201F301F401F50120308400FF
:100078000030850025308431F62480317E10200040
:1000880083312A2B20003F08A03E86008701010803
:10009800CC002A084C060319522853285428C22990
:1000A800BE01BF1E582859285C2822008C155E28DE
:1000B80022008C1120003F19622863287A28BF1972
:1000C800662867287A283F1A6A286B287A28BF1A70
:1000D8006E286F287A2822000C108E10003020001D
:1000E800C500C600843111248031B1293F197D280B
:1000F8007E289628BF198128822896283F1A8528A5
:1001080086289628BF1E89288A28962822000C103F
:100118008E1032302000C5000030C6008431112412
:100128008031B1293F1999289A28AD28BF199D28EF
:100138009E28AD283F1EA128A228AD28BF1AA528B1
:10014800A628AD2822000C108E1083316A23803136
:10015800B1293F19B028B128C128BF19B428B5283A
:10016800C1283F1EB828B928C128BF1EBC28BD28F1
:10017800C12822000C108E10A9283F19C428C528B0
:10018800D528BF1DC828C928D5283F1ACC28CD286E
:10019800D528BF1AD028D128D52822000C108E14B3
:1001A80072283F19D828D928E928BF1DDC28DD285E
:1001B800E9283F1AE028E128E928BF1EE428E528B5
:1001C800E92822000C108E148D283F19EC28ED2800
:1001D800FD28BF1DF028F128FD283F1EF428F5282A
:1001E800FD28BF1AF828F928FD2822000C108E14C3
:1001F80072283F19002901291129BF1D0429052941
:1002080011293F1E082909291129BF1E0C290D296A
:10021800112922000C108E148D283F1D1429152930
:100228002529BF191829192925293F1A1C291D29EB
:100238002529BF1A20292129252922000C148E10CE
:1002480072283F1D282929293929BF192C292D2928
:1002580039293F1A302931293929BF1E342935292E
:10026800392922000C108E108D283F1D3C293D296C
:100278004D29BF19402941294D293F1E44294529A7
:100288004D29BF1A482949294D2922000C108E10E2
:10029800A9283F1D502951296129BF1954295529D9
:1002A80061293F1E582959296129BF1E5C295D29EA
:1002B800612922000C108E10A9283F1D6429652988
:1002C8007529BF1D6829692975293F1A6C296D2967
:1002D8007529BF1A70297129752922000C148E14EA
:1002E80072283F1D782979298929BF1D7C297D29F4
:1002F80089293F1A802981298929BF1E84298529AE
:10030800892922000C148E148D283F1D8C298D29D3
:100318009D29BF1D902991299D293F1E9429952922
:100328009D29BF1A982999299D2922000C148E14F9
:1003380072283F1DA029A129B129BF1DA429A529DB
:10034800B1293F1EA829A929B129BF1EAC29AD2969
:10035800B12922000C148E148D282000CD014D08DF
:10036800203E8600870181010130CB004B08CD0774
:100378000B304D02031CC129C229B32908000430DF
:1003880026001306031DC929CA294A2A7708F1003D
:100398007608F0000530930020003903031DD529A5
:1003A800D629782AB9012B087002AD002C08713BB8
:1003B800AE003008F9002F08F800F936F80CF936C5
:1003C800F80CF936F80C7808F2002E08F9002D0818
:1003D800F800F936F80CF936F80CF936F80C780804
:1003E800F300730872020318FA29FB29FF2972081F
:1003F8007302BA00022A73087202BA001A30730232
:10040800031C072A082A0B2A22000D170D2A22008E
:100418000D1320003808031D122A132A1D2A103034
:100428003A020318182A192A492AB801B80AB70142
:10043800782A10303A020318222A232A302A013057
:10044800F800370A282AF835890B272A7808FF3A4E
:10045800F9007908F5053B2A0130F800370A352AF2
:10046800F835890B342A7808F9007908F504013041
:10047800F8007808B70708303702031C442A452AD1
:10048800492AB8010130C300782A782A05301306B2
:10049800031D4F2A502A782A77082000AC007608D6
:1004A800AB00043026009300710820002C02031DC5
:1004B8005F2A70082B02031C622A632A6A2A7008C2
:1004C8002B02AF0071082C3BB000762A7108F900A6
:1004D8007008F800F809F9092B087807AF002C080C
:1004E800793DB000B901B90A080020004303031D93
:1004F8007E2A7F2AE92AC301C62AC8307506031D49
:10050800862A872A8C2AC101C10A7508A000E92A0F
:10051800C101E92A8B307506031D932A942A8C2A77
:100528007508A1000230C100E92A7508A20003304D
:10053800C100E92A7508A3000430C100E92A75083A
:10054800A4000530C100E92A7508A5000630C100DD
:10055800E92A7508A6000730C100E92A7508A7002E
:100568000830C100E92A7508A8000930C100E92A45
:100578007508A9000A30C100E92A7508AA00C20155
:10058800C20A8C2A4108003A0319812A013A031940
:100598008E2A033A0319992A013A03199E2A073A1F
:1005A8000319A32A013A0319A82A033A0319AD2A01
:1005B800013A0319B22A0F3A0319B72A013A031963
:1005C800BC2A033A0319C12A8C2A08004C349F34E8
:1005D800ED343E346634B534C734143459348A346F
:1005E800F8342B347334A034D23401348E345D346F
:1005F8002F34FC34A43477340534D6349B3448344F
:100608003A34E934B13462341034C3342D34FE340E
:100618008C345F340734D434A63475343834EB342E
:1006280099344A341234C134B3346034EF343C342E
:100638004E349D34C53416346434B734FA3429340E
:100648005B348834D03403347134A2348431482480
:1006580083318D302000C5000430C6008431FC246D
:1006680083318B170B1720008D193B2B3C2B3E2B0E
:10067800BB01402BBB01BB0A823179228331833114
:10068800E02383318331A623833120003C08031DF6
:100698004E2B4F2B5A2B3D03031D532B542B562BFC
:1006A800BD01372B803146208331372BBC01220016
:1006B8008C150C108E1432302000C5000030C60096
:1006C800843111248331372B80312628F4302000DF
:1006D800C9000130CA003B08031D732B742B8C2BF7
:1006E8003F1C772B782B7F2BBF1A7B2B7C2B7F2BE8
:1006F800C901CA019E2B3F1C822B832B9E2BBF1E38
:10070800862B872B9E2B3230C9000030CA009E2BC7
:10071800BF1C8F2B902B952BBF1A932B942B952BAB
:100728007C2BBF1C982B992B9E2BBF1E9C2B9D2B83
:100738009E2B872B4A08C6004908C500843111241E
:1007480083310800063020002206031DAC2BAD2B98
:10075800C42BD5302A06031DB22BB32BC42BBD01E5
:10076800BD0A22008C158E100C1032302000C500F6
:100778000030C6008431112483312000BE01DF2BF4
:1007880002302206031DC92BCA2BDE2BB4302A06E1
:10079800031DCF2BD02BDE2BBD01BD0A22008C11EF
:1007A8008E100C1000302000C500C60084311124C2
:1007B8008331C12BBD01080020002208F400230862
:1007C800C000BF01741DE92BEA2BEC2BBF16ED2BE3
:1007D800BF12F41DF02BF12BF32B3F16F42B3F1215
:1007E800741EF72BF82BFA2BBF15FB2BBF11F41E29
:1007F800FE2BFF2B012C3F15022C3F11C01E052C90
:10080800062C082CBF14092CBF10401F0C2C0D2CD3
:100818000F2C3F14102C3F10080020004608C80079
:100828004508C700C836C70CC836C70C4708250096
:100838009100200045080339C7000430C735890BEB
:10084800222C25001308CF392000470425009300E7
:100858000800220090018C0148308D008E0108307C
:1008680021009000F6308C00BF308D00F9308E00EA
:1008780023008D018C012400900108308D00210097
:10088800951322009D01080084312D248431843180
:10089800D22484318531022584318431B8248431CD
:1008A8008431E82484318431DE2484318431AB24DA
:1008B800843184317924843108000B1120004408E4
:1008C80095000130B1070030B23D003032020A30E5
:1008D80003193102031C712C722C782C8431C52425
:1008E80084312000B101B201080021001508C03987
:1008F800143895000630200095000630C4000B110E
:100908008B160630C5000530C6008431FC248431BE
:1009180008000130F60076082000BE07C8303E0205
:10092800031C972C982C9B2CBC01BC0ABE01080008
:100938002000131226001108FA001208FB007B0899
:10094800F7007A08F6008131C3218431080010309D
:10095800200099009701960111101708B600160893
:10096800B5000130980008000C302500930095016F
:10097800803094000130960092019101FC309E0570
:1009880008002000330834040319CB2CCC2CD12CBC
:1009980034088A0033080A008431080070302100C6
:1009A800990098012200960121001A1FDC2CDD2CE9
:1009B800D82C0800053026009300920191012000F0
:1009C80013122100131608007C3020009B009A01A6
:1009D800911007309C000800FE0012001E00FE0B5C
:1009E800F12C0034640080010131890BF72C0034AC
:1009F80020004608B4004508B3000800163021005E
:060A080097000800080041
:020000040001F9
:04000E00C43FFF1FCD
:00000001FF
