:020000040000FA
:0400000080312628FD
:100008007E1480318B1E09280A2812280B1D0D2802
:100018000E28122884314324803124280B1F1528E8
:10002800162824282100131E1A281B2824282000FB
:10003800131E1F282028242884317E248031242858
:100048007E10090080312828FF3084008230850026
:10005800A03086000030870040308431D2248031BF
:10006800F001F101F201F301F401F50120308400FF
:100078000030850025308431D82480317E1020005E
:1000880083313F2B20003F08A03E860087010108EE
:10009800CC002A084C060319522853285428C22990
:1000A800BE01BF1E582859285C2822008C155E28DE
:1000B80022008C112000BF1A622863287A28BF19F1
:1000C800662867287A283F196A286B287A283F1AF1
:1000D8006E286F287A2822008E100C10003020001D
:1000E800C500C60084310E248031B129BF1A7D288D
:1000F8007E289128BF198128822891283F198528B0
:10010800862891283F1E89288A28912822008E1047
:100118000C108331F0238031B129BF1A9428952817
:10012800A528BF1998289928A5283F1D9C289D28EF
:10013800A5283F1AA028A128A52822008E100C1453
:100148007228BF1AA828A928B928BF19AC28AD2831
:10015800B9283F1DB028B128B9283F1EB428B528B2
:10016800B92822008E100C108D28BF1ABC28BD2873
:10017800CD28BF1DC028C128CD283F19C428C528AF
:10018800CD283F1AC828C928CD2822008E140C1063
:100198007228BF1AD028D128E128BF1DD428D52815
:1001A800E1283F19D828D928E1283F1EDC28DD2876
:1001B800E12822008E140C107228BF1AE428E528C2
:1001C800F528BF1DE828E928F5283F1DEC28ED286B
:1001D800F5283F1AF028F128F52822008E140C146F
:1001E8007228BF1AF828F9280929BF1DFC28FD28FC
:1001F80009293F1D0029012909293F1E042905292C
:10020800092922008E140C147228BF1E0C290D29EE
:100218002529BF191029112925293F19142915291C
:1002280025293F1A18291929252922008E100C1072
:1002380032302000C5000030C60084310E248031E1
:10024800B129BF1E282929293929BF192C292D2967
:1002580039293F193029312939293F1E34293529AF
:10026800392922008E100C108D28BF1E3C293D29EB
:100278004D29BF19402941294D293F1D44294529A8
:100288004D293F1A482949294D2922008E100C1062
:100298001C29BF1E502951296129BF1954295529E4
:1002A80061293F1D5829592961293F1E5C295D296B
:1002B800612922008E100C101C29BF1E6429652993
:1002C8007529BF1D6829692975293F196C296D2968
:1002D80075293F1A70297129752922008E140C106E
:1002E8001C29BF1E782979298929BF1D7C297D29C8
:1002F80089293F198029812989293F1E842985292F
:10030800892922008E140C101C29BF1E8C298D29C6
:100318009D29BF1D902991299D293F1D9429952923
:100328009D293F1A982999299D2922008E140C1479
:100338001C29BF1EA029A129B129BF1DA429A529AF
:10034800B1293F1DA829A929B1293F1EAC29AD29EA
:10035800B12922008E140C141C292000CD014D084F
:10036800203E8600870181010130CB004B08CD0774
:100378000B304D02031CC129C229B32908000430DF
:1003880026001306031DC929CA29602A7708F30025
:100398007608F2000530930020003703031DD529A5
:1003A800D6298D2AB70171087302031DDD2970084B
:1003B8007202031CE029E129E82970087202AB00E7
:1003C8007108733BAC00F4297108F9007008F80053
:1003D800F809F90972087807AB007308793DAC0091
:1003E8002E08F9002D08F800F936F80CF936F80C43
:1003F800F936F80C7808B9002C08F9002B08F80031
:10040800F936F80CF936F80CF936F80C7808BA0011
:100418003A0839020318112A122A162A39083A0208
:10042800B800192A3A083902B8003608031D1D2AEF
:100438001E2A2D2A22000E1610302000380203181A
:10044800262A272A8D2AB601B60AB50122000E12DD
:100458008D2A103038020318322A332A432A220000
:100468000E120130F8002000350A3B2AF835890BB6
:100478003A2A7808FF3AF9007908F505512A220046
:100488000E160130F8002000350A4B2AF835890B82
:100498004A2A7808F9007908F5040130F800780844
:1004A800B50708303502031C5A2A5B2A5F2AB601B1
:1004B8000130C3008D2A8D2A05301306031D652AD5
:1004C800662A8D2A7708F1007608F0000430930038
:1004D80073087102031D722A72087002031C752AC0
:1004E800762A7E2A720870022000AD007308713BDC
:1004F800AE008B2A7308F9007208F800F809F909A8
:10050800700878072000AD007108793DAE00B7018A
:10051800B70A080020004303031D932A942AFE2AE1
:10052800C301DB2AC8307506031D9B2A9C2AA12A11
:10053800C101C10A7508A000FE2AC101FE2A8B303C
:100548007506031DA82AA92AA12A7508A100023048
:10055800C100FE2A7508A2000330C100FE2A7508F2
:10056800A3000430C100FE2A7508A4000530C100AC
:10057800FE2A7508A5000630C100FE2A7508A600E7
:100588000730C100FE2A7508A7000830C100FE2AFE
:100598007508A8000930C100FE2A7508A9000A30AC
:1005A800C100FE2A7508AA00C201C20AA12A410890
:1005B800003A0319962A013A0319A32A033A0319A0
:1005C800AE2A013A0319B32A073A0319B82A013A9D
:1005D8000319BD2A033A0319C22A013A0319C72A83
:1005E8000F3A0319CC2A013A0319D12A033A0319FD
:1005F800D62AA12A08004C349F34ED343E349A346C
:100608000034003400342734003400340034F1342A
:10061800A034D2340134B1345D342F34FC3467341F
:10062800003400340034DA340034003400340C343C
:1006380062341034C334FA34FE348C345F342C34CE
:100648000034003400349134EB3499344A3447345C
:10065800C134B334603407343C344E349D34D1341F
:100668000034003400346C34003400340034BA34BC
:1006780003347134A23484312A2483316F3020004A
:10068800C5000430C6008431DE2483318B170B1774
:1006980020008D19502B512B532BBB01552BBB011F
:1006A800BB0A82318E22833183317F2383318331A8
:1006B800B023833120003C08031D632B642B6F2B70
:1006C8003D03031D682B692B6B2BBD014C2B80311F
:1006D800462083314C2BBC0122008C150C108E1443
:1006E80032302000C5000030C60084310E2483312A
:1006F8004C2B8031262820002208F4002308C00053
:10070800BF01741D882B892B8B2BBF168C2BBF1216
:10071800F41D8F2B902B922B3F16932B3F12741E98
:10072800962B972B992BBF159A2BBF11F41E9D2B37
:100738009E2BA02B3F15A12B3F11C01EA42BA52B30
:10074800A72BBF14A82BBF10401FAB2BAC2BAE2B75
:100758003F14AF2B3F100800063020002206031D6F
:10076800B62BB72BD02BD5302A06031DBC2BBD2B9F
:10077800D02B22008C152000BD01BD0A22008E104E
:100788000C1032302000C5000030C60084310E2421
:1007980083312000BE01D12BBD0108002200900149
:1007A8008C0108308D0010308E0008302100900038
:1007B800F6308C00FF308D00F9308E003730230082
:1007C8008D003F308C002400900108308D002100FE
:1007D800951322009D010800F4302000C900013063
:1007E800CA003B08031DF92BFA2B012C3F1CFD2BDB
:1007F800FE2B062CC901CA01062CBF1C042C052C93
:10080800062CFE2B4A08C6004908C50084310E2470
:100818008331080020004608C8004508C700C836CC
:10082800C70CC836C70C47082500910020004508AA
:100838000339C7000430C735890B1F2C250013085E
:10084800CF39200047042500930008008331D223C4
:1008580084318431B42484318431E4248431843172
:100868009A2484318431CA2484318431C024843167
:1008780084318D24843184315B24843108000B1148
:100888002000440895000130AF070030B03D00302B
:1008980030020A3003192F02031C532C542C5A2CF3
:1008A8008431A72484312000AF01B0010800210061
:1008B8001508C03914389500063020009500063018
:1008C800C4000B118B16E830C5000430C600843113
:1008D800DE24843108000130F60076082000BE07C7
:1008E800C8303E02031C792C7A2C7D2CBC01BC0A32
:1008F800BE0108002000131226001108FA00120891
:10090800FB007B08F7007A08F6008131C3218431A7
:10091800080010302000990097019601111017085F
:10092800B4001608B3000130980008000C30250008
:100938009300950180309400013096009201910156
:10094800FC309E0508002000310832040319AD2C44
:10095800AE2CB32C32088A0031080A008431080012
:1009680070302100990098012200960121001A1F79
:10097800BE2CBF2CBA2C080005302600930092012B
:100988009101200013122100131608007C3020006A
:100998009B009A01911007309C000800FE0012008D
:1009A8001E00FE0BD32C0034640080010131890B3A
:1009B800D92C003420004608B2004508B1000800D0
:0A09C8001630210097000800080017
:020000040001F9
:04000E00C43FFF1FCD
:00000001FF
